S013000050726F796563746F494F542E73726563D0
S113000043C4000072C4000070C400006EC4000049
S11300106CC400006AC4000068C4000066C4000028
S113002064C4000062C4000060C400005EC4000038
S11300305CC400005AC4000058C4000056C4000048
S113004054C4000052C4000050C400004EC4000058
S11300504CC400004AC4000048C400000C94771447
S113006044C400000C9484100C94BA103EC40000E4
S11300703CC400003AC4000038C4000036C4000088
S113008034C4000032C4000030C400002EC4000098
S11300900C9419110C944F1128C4000026C40000BC
S11300A024C4000022C4000020C400001EC40000B8
S11300B01CC400001AC4000018C4000016C40000C8
S11300C014C4000012C4000010C400000EC40000D8
S11300D00CC400000AC4000008C4000006C40000E8
S11300E004C40000D715DC15E115EB15F5156E16E3
S11300F0FF1507160F16191623162D163C1646164D
S11301006E1650165A16641692169516841688168C
S11301108E16CC1699169D16A316A716AB16B116F5
S1130120B516B916CC16BF16C316C71600407A10FA
S1130130F35A00A0724E18090010A5D4E80000E894
S11301407648170000E40B54020000CA9A3B0000F2
S113015000E1F505000080969800000040420F0081
S11301600000A08601000000102700000000E80342
S1130170000000006400000000000A00000000000D
S11301800100000000002C76D888DC674F0823DFCC
S1130190C1DFAE59E1B1B796E5E3E453C63AE6519F
S11301A0997696E8E6C28426EB898C9B62ED407CC6
S11301B06FFCEFBC9C9F40F2BAA56FA5F490055A62
S11301C02AF75C936B6CF9676DC11BFCE0E40D4787
S11301D0FEF520E6B500D0ED902E030094357705AA
S11301E00080841E080000204E0A000000C80C3362
S11301F03333330F986E12831141EF8D2114893BF1
S1130200E65516CFFEE6DB18D1844B381BF77C1D70
S1130210901DA4BBE424203284725E228100C9F1C3
S113022024ECA1E53D270308000000000001085F5D
S113023000000000030803000300000508143E1436
S11302403E140408246A2B1200050863130864632F
S11302500508364956205001080300000000030831
S11302601C22410000030841221C00000508281834
S11302700E1828050808083E08080208B070000097
S11302800004080808080800020860600000000470
S113029008601806010004083E41413E000308427C
S11302A07F40000004086251494600040822414985
S11302B0360004081814127F000408274545390045
S11302C004083E4949300004086111090700040884
S11302D0364949360004080649493E0002085000E0
S11302E000000002088050000000030810284400A9
S11302F00003081414140000030844281000000428
S113030008025909060005083E49555D0E04087E99
S113031011117E0004087F4949360004083E41411A
S1130320220004087F41413E0004087F49494100FE
S113033004087F0909010004083E41497A000408C1
S11303407F08087F000308417F4100000408304013
S1130350413F0004087F0814630004087F404040C4
S11303600005087F020C027F05087F0408107F0443
S1130370083E41413E0004087F0909060004083E86
S11303804141BE0004087F09097600040846494932
S11303903200050801017F010104083F40403F008D
S11303A005080F3040300F05083F4038403F05082E
S11303B063140814630508070870080704086151EA
S11303C049470002087F4100000004080106186044
S11303D0000208417F00000003080201020000043B
S11303E008404040400002080102000000040820C8
S11303F05454780004087F444438000408384444C2
S1130400280004083844447F000408385454180071
S11304100308047E050000040898A4A478000408D6
S11304207F040478000308447D40000004084080F1
S1130430847D0004087F102844000308417F4000A5
S11304400005087C047C047804087C040478000417
S11304500838444438000408FC242418000408180C
S11304602424FC0004087C080404000408485454B0
S113047024000308043F44000004083C40407C007E
S113048005081C2040201C05083C403C403C050855
S1130490442810284404089CA0A07C000308645449
S11304A04C00000308083641000001087F000000EA
S11304B0000308413608000004080804080400008A
S11304C0000A0B02090C0D0E0807030401000000CA
S11304D00000000000000000000000000000000018
S11304E000000000000000000000001211100000D5
S11304F000000000000000000000000000000000F8
S11305000000000000010210202008081020401004
S113051020408002010201080402010102040810C3
S113052020408080402010080402018004020180E1
S1130530402010080402010804020101020408100A
S113054020408001020408102040800505050507AD
S11305500508080808020202020A0A08080404043A
S11305600401010101010101010303030303030366
S113057003040707070C0C0C0C0C0C0C0C020202F5
S11305800206060606060606060B0B0B0B0B0B0BE8
S11305900B00002200250028002B002E003100341F
S11305A00002010000050108010B010000210024E4
S11305B00027002A002D0030003300010100000450
S11305C00107010A01496E697469616C697A696E8F
S11305D06720455350206D6F64756C6500446973E2
S11305E0636F6E6E656374696E6720004661696C43
S11305F0656420746F20777269746520746F20734A
S11306006F636B6574004E6F20736F636B6574204A
S1130610617661696C61626C6500436F6E6E6563DF
S113062074696E6720746F0025642E25642E25641A
S11306302E2564003E3E3E2054494D454F555420DE
S11306403E3E3E004E6F2074616720666F756E6497
S113065000456E6420746167206E6F7420666F7548
S11306606E640044617461207061636B657420730F
S1130670656E64206572726F7220283229004461AD
S11306807461207061636B65742073656E642065AA
S113069072726F72202831290041542B4349505300
S11306A0454E443D25642C25750054494D454F5510
S11306B0543A0054616720434C4F534544206E6FB5
S11306C07420666F756E640041542B434950434C4B
S11306D04F53453D25640041542B434950535441E5
S11306E052543D25642C22554450222C2225732239
S11306F02C302C25752C320041542B434950535433
S11307004152543D25642C2253534C222C222573F0
S1130710222C25750041542B43495053534C5349C3
S11307205A453D343039360041542B4349505354D3
S11307304152543D25642C22544350222C222573CB
S1130740222C25750041542B474D520053444B2015
S113075076657273696F6E3A000D0A0041542B433B
S11307604950535441545553002B43495053544119
S11307705455533A25642C0041542B434950535447
S113078041545553005354415455533A000D0A00F3
S11307904661696C656420636F6E6E656374696E2F
S11307A06720746F00436F6E6E65637465642074B4
S11307B06F0041542B43574A41505F4355523D22E9
S11307C02573222C222573220041542B435744487D
S11307D043503D312C310041542B43574155544F24
S11307E0434F4E4E3D300041542B43495044494EF3
S11307F0464F3D310041542B4349504D55583D31EE
S11308000041542B43574D4F44453D31004154451D
S1130810300041542B52535400496E6974696C6919
S11308207A6174696F6E207375636365737366753B
S11308306C202D005761726E696E673A20556E7395
S11308407570706F72746564206669726D77617219
S1130850650043616E6E6F7420696E697469616CC2
S1130860697A6520455350206D6F64756C6500414D
S11308705400D80A050D510DEC1081115522A32204
S1130880A9241A2B110D292B11241FBECFEFD1E25D
S1130890DEBFCDBF00E00CBF14E0A0E0B2E0E2E9AF
S11308A0FDE600E00BBF02C007900D92A23DB10728
S11308B0D9F726E0A2EDB4E001C01D92A237B20739
S11308C0E1F714E0C2E4D4E000E006C02197010996
S11308D0802FFE010E94FA2DC933D10780E008075A
S11308E0A9F70E9404120C94B7368ACB0F93FC012B
S11308F06083418322830383DC011496EC5AFF4F07
S11309001D92AE17BF07E1F70F910895EF92FF9282
S11309100F931F93CF93DF93EC01E62EF42E60E048
S113092089810E94091700E010E08B8190E008178C
S113093019077CF42E2D41E06A8188810E943717C3
S11309402F2D41E06A8188810E9437170F5F1F4F66
S1130950ECCF60E089810E94091761E08981DF9111
S1130960CF911F910F91FF90EF900C940917462F90
S11309706AE0CCCFBF92CF92DF92EF92FF920F93B7
S11309801F93CF93DF93EC01F62EB42EC62EC6949C
S1130990C694C694D12C862F8770E82E60E0898196
S11309A00E94091700E010E0E3948B8190E008179F
S11309B01907D4F40C151D0541F42E2D41E06A816C
S11309C088810E9437172B2D07C020E041E06A81FF
S11309D088810E94371720E041E06A8188810E9463
S11309E037170F5F1F4FE1CF60E089810E9409171D
S11309F061E089810E940917CF0DD11DBC82DF916E
S1130A00CF911F910F91FF90EF90DF90CF90BF9007
S1130A100895AF92BF92CF92DF92EF92FF920F931D
S1130A201F93CF93DF93EC01162F042F60E089818D
S1130A300E940917A12EB12C7E01C12CD12C1F5F5D
S1130A408B8190E0C816D906A4F4212F41E06A8175
S1130A5088810E943717202F41E06A8188810E9493
S1130A603717F7010483FFEFCF1ADF0AEA0CFB1CE8
S1130A70E7CF60E089810E94091761E08981DF91F5
S1130A80CF911F910F91FF90EF90DF90CF90BF9087
S1130A90AF900C9409171F93CF93DF93EC0110E0F0
S1130AA040E0612FCE01B5DF1F5F1830C9F7FE01AA
S1130AB03496CC5ADF4F1192EC17FD07E1F7DF9122
S1130AC0CF911F910895CF93DF93EC0161E088816A
S1130AD00E94CD1661E08A810E94CD1661E0898171
S1130AE00E94CD1661E08A810E94091747E06BE0FD
S1130AF0CE010CDF40E069E0CE0108DF41E06CE0AC
S1130B00CE0104DF40E06FE0CE0100DFCE01C3DFA1
S1130B106FE0CE01DF91CF912ACFAF92BF92CF92F7
S1130B20DF92EF92FF921F93CF93DF93EC01E62EB7
S1130B30F12CFC01EE0DFF1D81E090E0A0E0B0E09F
S1130B4004C0880F991FAA1FBB1F4A95D2F72223FE
S1130B5019F02481822B03C0809594818923848396
S1130B60A62EA694A694A694B12C162F177060E016
S1130B7089810E940917C12CD12C1F5FEC0EFD1E28
S1130B8084E0E80EF11C8B8190E0C816D906E4F4E9
S1130B90CA14DB0449F4212F41E06A8188810E9450
S1130BA03717F701208107C020E041E06A8188817E
S1130BB00E94371720E041E06A8188810E9437173C
S1130BC0FFEFCF1ADF0ADFCF60E089810E940917A7
S1130BD061E08981DF91CF911F91FF90EF90DF90C9
S1130BE0CF90BF90AF900C9409172F923F924F92E1
S1130BF05F926F927F928F929F92AF92BF92CF92A9
S1130C00DF92EF92FF920F931F93CF93DF934C01E8
S1130C103A018901F9012080312C4180512CEB01EA
S1130C207901F8E04F16510429F5452B19F5C70150
S1130C30801B910B82159305D4F5C035D10528F49A
S1130C40F70142816C2FC40195DE2196FFEFEF1A64
S1130C50FF0AEDCFC035D105B8F0FFEFAF1ABF0AD8
S1130C608FEFC81AD80AA414B504A4F3EFEFEE1A50
S1130C70FE0A2196C701801B910B82159305BCF4D3
S1130C806301A12CB12CEFCF88E0C816D10428F75A
S1130C90F701228130E00A2C02C0359527950A9489
S1130CA0E2F721704C2D6C2FC40137DFD6CFDF91D2
S1130CB0CF911F910F91FF90EF90DF90CF90BF9055
S1130CC0AF909F908F907F906F905F904F903F90E8
S1130CD02F900895AF92BF92CF92DF92EF92FF923E
S1130CE01F93CF93DF93EC017C0111E060E08981D5
S1130CF00E9409176701A12CB12C8B8190E0A816E2
S1130D00B906A4F4212F41E06A8188810E94371733
S1130D10F601248141E06A8188810E943717FFEF40
S1130D20AF1ABF0A88E0C80ED11CE7CF60E0898102
S1130D300E94091761E089810E940917EFEFEE1AFA
S1130D40FE0A1F5F193091F6DF91CF911F91FF903A
S1130D50EF90DF90CF90BF90AF900895FC01248175
S1130D603496DC01AC5ABF4F31813193EA17FB074B
S1130D70D9F7662349F0FC01338148E0349FE00D44
S1130D80F11D112423830AC0442341F0FC01238173
S1130D9038E0239FE00DF11D112413829BCF86E3DD
S1130DA00E948B15BC01990F880B990B53D720E037
S1130DB030E040EA50E4DAD720E030EC4FE754E486
S1130DC0DFD62DEC3CEC4CEC5EE375D62AE037ED37
S1130DD043EA5CE3D5C608958F929F92AF92BF9287
S1130DE0CF92DF92EF92FF920F931F93CF93DF93F3
S1130DF0CDB7DEB762970FB6F894DEBF0FBECDBF96
S1130E008C01CDB6DEB6CBDF4B015C0166E372E04C
S1130E1086EF94E00E948312C801C1DFAB01BC01DC
S1130E2022E030E086EF94E00E94671422E0B501EE
S1130E30A401CE0107960E943C1866E372E0CE013D
S1130E4001960E94CB17BE01695F7F4FCE010196C8
S1130E500E94AB18BC01CE010D960E94F417CE017E
S1130E6001960E945D17CE0107960E945D1749897D
S1130E705A894F5F5F4F8DB79EB7841B950B0FB692
S1130E80F8949EBF0FBE8DBFEDB7FEB731967F01BC
S1130E9020E030E0BF01CE010D960E94F21860916F
S1130EA00A0270910B02A701F801848195810E94C6
S1130EB07F21CE010D960E945D170FB6F894DEBE19
S1130EC00FBECDBE62960FB6F894DEBF0FBECDBF87
S1130ED0DF91CF911F910F91FF90EF90DF90CF9012
S1130EE0BF90AF909F908F900895CF92DF92EF9232
S1130EF0FF920F931F93CF93DF93CDB7DEB7629723
S1130F000FB6F894DEBF0FBECDBF7C010DB71EB780
S1130F1060E572E086EF94E00E94831261B1617033
S1130F204AE050E070E086EF94E00E947813109954
S1130F3003C06AE472E002C065E472E0CE01079681
S1130F400E94CB1760E572E0CE0101960E94CB1798
S1130F50BE01695F7F4FCE0101960E94AB18BC01B0
S1130F60CE010D960E94F417CE0101960E945D17E2
S1130F70CE0107960E945D1749895A894F5F5F4FDA
S1130F808DB79EB7841B950B0FB6F8949EBF0FBE0A
S1130F908DBFEDB7FEB731966F0120E030E0BF01A1
S1130FA0CE010D960E94F21860910C0270910D0210
S1130FB0A601F701848195810E947F21CE010D96BF
S1130FC00E945D170FB6F8941EBF0FBE0DBF629648
S1130FD00FB6F894DEBF0FBECDBFDF91CF911F9146
S1130FE00F91FF90EF90DF90CF900895CF92DF9212
S1130FF0EF92FF920F931F93CF93DF93CDB7DEB79A
S113100062970FB6F894DEBF0FBECDBF6C01EDB68C
S1131010FEB66EE572E086EF94E00E948312609162
S1131020D2047091D3044AE050E086EF94E00E9429
S113103078136091D2047091D3044AE0CE010796EC
S11310400E9411186BE672E0CE0101960E94CB1744
S1131050BE01695F7F4FCE0101960E94AB18BC01AF
S1131060CE010D960E94F417CE0101960E945D17E1
S1131070CE0107960E945D1749895A894F5F5F4FD9
S11310808DB79EB7841B950B0FB6F8949EBF0FBE09
S11310908DBF0DB71EB70F5F1F4F20E030E0B801C2
S11310A0CE010D960E94F218609110027091110207
S11310B0A801F601848195810E947F21CE010D96BD
S11310C00E945D170FB6F894FEBE0FBEEDBE629689
S11310D00FB6F894DEBF0FBECDBFDF91CF911F9145
S11310E00F91FF90EF90DF90CF900895CF92DF9211
S11310F0EF92FF920F931F93CF93DF93CDB7DEB799
S113110062970FB6F894DEBF0FBECDBF7C010DB75A
S11311101EB762E772E086EF94E00E94831260914A
S1131120EA0470E04AE0CE0101960E94111864EED0
S113113074E0CE0107960E94F4176FEC72E0CE01C2
S113114007960E94BC18BE016F5F7F4F0E94AB18C8
S1131150BC0186EF94E00E949E12CE0107960E9485
S11311605D17CE0101960E945D178091EA048111FA
S113117003C06AE472E002C065E472E0CE01019645
S11311800E94CB1760E872E0CE0107960E94CB174D
S113119064EE74E0CE0107960E94AB186FEC72E027
S11311A00E94BC18BE016F5F7F4F0E94AB18BC0148
S11311B0CE010D960E94F417CE0107960E945D178A
S11311C0CE0101960E945D1749895A894F5F5F4F8E
S11311D08DB79EB7841B950B0FB6F8949EBF0FBEB8
S11311E08DBFEDB7FEB731966F0120E030E0BF014F
S11311F0CE010D960E94F21860910E0270910F02BA
S1131200A601F701848195810E947F21CE010D966C
S11312100E945D170FB6F8941EBF0FBE0DBF6296F5
S11312200FB6F894DEBF0FBECDBFDF91CF911F91F3
S11312300F91FF90EF90DF90CF900895CF93DF93BD
S1131240EC016EE872E086EF94E00E94AE128E85A7
S11312509F850197E9F06EEA72E086EF94E00E94C0
S1131260831261ED72E086EF94E00E94AE1243EEC9
S113127052E061ED72E08FE396E00E9473229F8753
S11312808E8764EF71E080E090E00E94F214DFCF7B
S11312906EEE72E086EF94E0DF91CF910C94AE1283
S11312A0CF93DF93EC0126E040E05BE460E070E084
S11312B083E995E0C5D683E995E00E9460228FE337
S11312C096E00E9481228F3F39F466E073E086EF56
S11312D094E00E94AE12FFCFCE01DF91CF91AECF4A
S11312E00F931F93CF93DF9300D000D0CDB7DEB719
S11312F08C01F801848195810E94701D811178C050
S113130066E273E086EF94E00E948312F801608144
S1131310718186EF94E00E94AE1265E373E0CE0122
S113132001960E94CB1769817A81F80184819581A5
S11313300E94711F8823C9F16BE473E086EF94E087
S11313400E94AE12609116027091170241E0F801FA
S1131350848195810E94A22160911A0270911B02DE
S113136041E0F801848195810E94A22160911402D8
S11313707091150241E0F801848195810E94A221B7
S1131380609112027091130241E0F8018481958109
S11313900E94A221609108027091090241E0F801C3
S11313A0848195810E94A2211EC062E573E086EFCC
S11313B094E00E948312F801848195810E94FE21A9
S11313C04AE050E0BC0186EF94E00E94721363E6A9
S11313D073E086EF94E00E94AE1268EE73E080E062
S11313E090E00E94F214CE0101960E945D1781CF15
S11313F026960FB6F894DEBF0FBECDBFDF91CF9116
S11314001F910F9108950F931F93CF93DF93EC01D6
S11314108DE793E0998388831E821F82188619863C
S11314201A861B861C861D861F861E86188A83E0E4
S1131430898BCE0135DF8DE090E0F0D78C010E94DE
S1131440E7231B830A8389E290E0E8D78C016A8151
S11314507B810E9428221D830C8363E070E0C80115
S11314600E945122688179814BE557E08C819D81EE
S11314700E94F4218FE396E00E94812290E09F87EE
S11314808E87019711F0CE01D9DE8C819D810E9457
S1131490701D811102C0CE0123DF62EE7AE08C81DF
S11314A09D810E94FA211E821F8218861986DF916F
S11314B0CF911F910F9108950F931F93CF93DF93B3
S11314C0EC010E94C1140E811F8128853985AB016E
S11314D0BC01401B510B620B730B88894938534183
S11314E06105710510F4882311F18F5F888B8130B9
S11314F011F4CE01FBDD8889823011F4CE0176DD52
S11315008889833011F4CE01F0DC8889843019F4A1
S1131510CE0162DC188A6AE070E080E090E00E940C
S1131520F2140E94C1146E837F83888799878A810D
S11315309B81DC01ED91FC910084F185E02D1995EE
S1131540892B69F08C819D810E948D1F8A819B81EA
S1131550DC01ED91FC910680F781E02D19950E9444
S1131560C1140A851B852C853D85DC01CB01801BBC
S1131570910BA20BB30B813D9740A105B10598F0E7
S11315808FE396E00E94812290E09F878E870197E7
S113159011F0CE0153DECE01A3DE0E94C1146A878E
S11315A07B878C879D87DF91CF911F910F91089541
S11315B00F9300E020E040E060E084ED94E017D772
S11315C00F910895AF92BF92CF92DF92EF92FF9264
S11315D00F931F93CF93DF93CDB7DEB762970FB608
S11315E0F894DEBF0FBECDBF8C015B016A016FE8CA
S11315F074E0CE010D960E94CB17B601CE010D9674
S11316000E94911786EF94E042D4892B11F16AE885
S113161073E086EF94E077D7B80186EF94E073D750
S11316206FE574E086EF94E06ED77501CA0CDB1C9D
S1131630CE14DF0441F0F70161917F01CE010D96D4
S11316400E949818F5CFBE01635F7F4F86EF94E048
S113165075D76091160270911702C8010E94C030BC
S1131660892B59F4CE010D960E94E31A7093D3048A
S11316706093D20482E00E94B01560911A027091C6
S11316801B02C8010E94C030892B09F06AC065E4BE
S113169072E0CE0101960E94CB17BE016F5F7F4FAF
S11316A0CE010D960E943E197C01CE0101960E9446
S11316B05D176FE874E0CE0101961E141F04F4F464
S11316C00E94CB1765E472E0CE0107960E94CB1707
S11316D0AE014F5F5F4FBE01695F7F4FCE010D9634
S11316E00E948F19CE0107960E945D17CE010196C4
S11316F00E945D1781E08093EA041CC00E94CB170E
S11317006AE472E0CE0107960E94CB17AE014F5FE8
S11317105F4FBE01695F7F4FCE010D960E948F1906
S1131720CE0107960E945D17CE0101960E945D17B7
S11317301092EA04CE010D960E94871ABE01635FDF
S11317407F4F84EE94E00E94DF17BE01635F7F4FFA
S11317508EED94E00E94DF1760E28EED94E00E942B
S113176098186091140270911502C8010E94C0304B
S1131770892B59F46AE472E0CE010D960E94D318C5
S1131780882311F0109A01C0109860911202709190
S11317901302C8010E94C030892BC9F465E472E0C9
S11317A0CE010D960E94D318882349F0119A61E066
S11317B070E080E090E00E94F214119808C0129A40
S11317C061E070E080E090E00E94F2141298609171
S11317D0080270910902C8010E94C030892B99F453
S11317E0CE010D960E94871A60910602709107023D
S11317F0CE010D960E94D318882319F0139A1498D9
S113180002C0149A1398CE010D960E945D17629639
S11318100FB6F894DEBF0FBECDBFDF91CF911F91FD
S11318200F91FF90EF90DF90CF90BF90AF9008950D
S1131830BF92CF92DF92EF92FF920F931F93CF93B9
S1131840DF93EC01C62ED42EB22E188A198A1A8A76
S11318501B8A84E590E0E2D57C012B2D4D2D6C2D67
S113186045D8F982E882C7012ED9BC82CA82DB82BC
S11318700D8362E370E084EE94E00E94911762E3CA
S113188070E08EED94E0DF91CF911F910F91FF9066
S1131890EF90DF90CF90BF900C9491170F931F930C
S11318A0CF93DF93EC018091DB04811127C0603278
S11318B008F442C0605287E0689FB00111246A5D59
S11318C07D4F47E050E08E010A5F1F4FC8010E9420
S11318D086306D8198E0699FB0011124980140E041
S11318E050E08881998181D98D816E8198E0899FAA
S11318F0600D112440E0888199813CD82E8130E02C
S11319008091DA0490E02817390774F040E060E031
S11319108881998123DA81E08093DB048091DA0461
S11319208F5F8093DA0404C01092DB041092DA040F
S11319309091DB0481E08927DF91CF911F910F9172
S113194008952091EA04222329F12091EB04211126
S113195029C02091DC043091DD04FB01E20FF31F68
S11319606081662379F09ADF882349F08091DC0452
S11319709091DD0401969093DD048093DC04109231
S1131980EB04089581E08093EB041092DD0410923F
S1131990DC0408951092DD041092DC04FC018081C3
S11319A0918179C808950F931F93CF93DF93EC012E
S11319B0E8D7088919892A893B89AB01BC01401BF6
S11319C0510B620B730B8091180290911902092E2E
S11319D0000CAA0BBB0B84179507A607B70780F466
S11319E06091DE047091DF04CE01ABDFCAD7688B4F
S11319F0798B8A8B9B8B8091EB0481111092EB0481
S1131A00DF91CF911F910F91089568E174E084EE06
S1131A1094E00E94CB176FE874E08EED94E00C9490
S1131A20CB178EED94E00E945D1784EE94E00C9445
S1131A305D170F93CF93DF9326E040E05BE460E013
S1131A4070E086EF94E0FCD28FE181B9159A82E1CF
S1131A5090E0E4D4EC01D7DCD093EF04C093EE041F
S1131A6084E190E0DBD4EC0104E024E345E363E3A8
S1131A70DFDED093ED04C093EC04DF91CF910F919E
S1131A8008958091EE049091EF0416DD8091EC04AA
S1131A909091ED0488DF059903C082B1877E82B9F5
S1131AA008950F9300E020E040E060E080EF94E0D0
S1131AB09ED40F9108955058BB27AA270ED01CC15D
S1131AC00DD130F012D120F031F49F3F11F41EF407
S1131AD002C10EF4E095E7FBF8C0E92F1ED180F3B4
S1131AE0BA17620773078407950718F071F49EF517
S1131AF036C10EF4E0950B2EBA2FA02D0B01B901BF
S1131B0090010C01CA01A0011124FF27591B99F06F
S1131B10593F50F4503E68F11A16F040A22F232F7B
S1131B20342F4427585FF3CF469537952795A795CB
S1131B30F0405395C9F77EF41F16BA0B620B730B72
S1131B40840BBAF09150A1F0FF0FBB1F661F771FE3
S1131B50881FC2F70EC0BA0F621F731F841F48F498
S1131B60879577956795B795F7959E3F08F0B3CF1E
S1131B709395880F08F09927EE0F97958795089508
S1131B800CD0BAC0B2D040F0A9D030F021F45F3FFD
S1131B9019F09BC05111E4C09EC0BFD098F39923A3
S1131BA0C9F35523B1F3951B550BBB27AA2762171D
S1131BB07307840738F09F5F5F4F220F331F441F62
S1131BC0AA1FA9F333D00E2E3AF0E0E830D091509A
S1131BD05040E695001CCAF729D0FE2F27D0660F87
S1131BE0771F881FBB1F261737074807AB07B0E8C6
S1131BF009F0BB0B802DBF01FF2793585F4F2AF0DC
S1131C009E3F510568F061C0ABC05F3FECF3983E66
S1131C10DCF3869577956795B795F7959F5FC9F738
S1131C20880F911D9695879597F90895E1E0660FC1
S1131C30771F881FBB1F621773078407BA0720F03A
S1131C40621B730B840BBA0BEE1F88F7E0950895A3
S1131C50E89409C097FB3EF4909580957095619542
S1131C607F4F8F4F9F4F9923A9F0F92F96E9BB27F8
S1131C709395F695879577956795B795F111F8CF74
S1131C80FAF4BB0F11F460FF1BC06F5F7F4F8F4FDF
S1131C909F4F16C0882311F096E911C0772321F0D5
S1131CA09EE8872F762F05C0662371F096E8862F6D
S1131CB070E060E02AF09A95660F771F881FDAF7C4
S1131CC0880F9695879597F9089597F99F6780E807
S1131CD070E060E008959FEF80EC089500240A947A
S1131CE01616170618060906089500240A941216F3
S1131CF01306140605060895092E0394000C11F426
S1131D00882352F0BB0F40F4BF2B11F460FF04C0D2
S1131D106F5F7F4F8F4F9F4F089557FD9058440F2B
S1131D20551F59F05F3F71F04795880F97FB991F36
S1131D3061F09F3F79F087950895121613061406F3
S1131D40551FF2CF4695F1DF08C016161706180680
S1131D50991FF1CF86957105610508940895E8945B
S1131D60BB2766277727CB0197F908950BD0C4CFFB
S1131D70B5DF28F0BADF18F0952309F0A6CFABCF72
S1131D801124EECFCADFA0F3959FD1F3950F50E055
S1131D90551F629FF001729FBB27F00DB11D639F19
S1131DA0AA27F00DB11DAA1F649F6627B00DA11DBF
S1131DB0661F829F2227B00DA11D621F739FB00D65
S1131DC0A11D621F839FA00D611D221F749F3327D5
S1131DD0A00D611D231F849F600D211D822F762F6E
S1131DE06A2F11249F5750408AF0E1F088234AF06B
S1131DF0EE0FFF1FBB1F661F771F881F91505040B7
S1131E00A9F79E3F510570F060CFAACF5F3FECF376
S1131E10983EDCF3869577956795B795F795E795A2
S1131E209F5FC1F7FE2B880F911D9695879597F9B3
S1131E300895FC01918D228D892F90E0805C9F4F45
S1131E40821B91098F7399270895FC01918D828DCE
S1131E50981731F0828DE80FF11D858D90E008957B
S1131E608FEF9FEF0895FC01918D828D981761F09B
S1131E70828DDF01A80FB11D5D968C91928D9F5FBD
S1131E809F73928F90E008958FEF9FEF0895FC0168
S1131E90538D448D252F30E0842F90E0821B930BCB
S1131EA0541710F0CF9608950197089583EE90E1AA
S1131EB0892B39F080E090E0892B19F084D18111CD
S1131EC024C088E791E1892B39F080E090E0892BE8
S1131ED019F00ED281111CC080E090E0892B41F0F2
S1131EE080E090E0892B21F00E940000811113C052
S1131EF080E090E0892BA1F080E090E0892B81F0D4
S1131F000E94000081110AC008950E940000D9CFE8
S1131F100E940000E1CF0E940000EACF0C94000070
S1131F200895FC01848DDF01A80FB11DA35ABF4F92
S1131F302C91848D90E001968F739927848FA689C4
S1131F40B7892C93A089B1898C91837080648C9318
S1131F50938D848D981306C00288F389E02D8081C7
S1131F608F7D80830895EF92FF920F931F93CF93F9
S1131F70DF93EC0181E0888F9B8D8C8D981305C0D5
S1131F80E889F989808185FD25C0F62E0B8D10E046
S1131F900F5F1F4F0F731127E02E8C8DE8120BC0BB
S1131FA00FB607FCFACFE889F989808185FFF5CF60
S1131FB0CE01B7DFF2CF8B8DFE01E80FF11DE35A9E
S1131FC0FF4FF0829FB7F8940B8FEA89FB898081D9
S1131FD080620AC09FB7F894EE89FF896083E8891C
S1131FE0F98980818370806480839FBF81E090E061
S1131FF0DF91CF911F910F91FF90EF900895CF93B0
S1132000DF93EC01888D8823C1F0EA89FB89808104
S113201085FD05C0A889B9898C9186FD0EC00FB6CF
S113202007FCF5CF808185FFF2CFA889B9898C910F
S113203085FFEDCFCE0175DFE8CFDF91CF91089515
S1132040CF92DF92EF92FF921F93CF93DF93EC0135
S11320506A017B01122F60E271EA87E090E0A70138
S113206096010E94D82DDA01C9010197A109B1098D
S1132070B695A795979587959C01E889F98982E09B
S11320808083211580E13807A8F0E889F989108256
S113209060E970ED83E090E0A70196010E94D82DDD
S11320A0DA01C9010197A109B109B695A7959795D8
S11320B087959C01EC85FD853083EE85FF85208323
S11320C0188EEC89FD891083EA89FB8980818061FF
S11320D08083EA89FB89808188608083EA89FB891F
S11320E0808180688083EA89FB8980818F7D8083F9
S11320F0DF91CF911F91FF90EF90DF90CF900895E3
S113210080E090E0089508951F920F920FB60F9209
S113211011240BB60F922F938F939F93EF93FF93FA
S1132120E0910605F09107058081E0910C05F0919E
S11321300D0582FD12C0908180910F058F5F8F7312
S113214020911005821751F0E0910F05F0E0EA505C
S1132150FB4F958F80930F0501C08081FF91EF9114
S11321609F918F912F910F900BBE0F900FBE0F90E8
S11321701F9018951F920F920FB60F9211240BB651
S11321800F922F933F934F935F936F937F938F930C
S11321909F93AF93BF93EF93FF9386EF94E0C1DED9
S11321A0FF91EF91BF91AF919F918F917F916F912B
S11321B05F914F913F912F910F900BBE0F900FBEE7
S11321C00F901F90189586EF94E033DE21E0892B61
S11321D009F420E0822F0895E6EFF4E013821282DE
S11321E088EE93E0A0E0B0E084839583A683B78370
S11321F08BE294E09183808385EC90E095878487DB
S113220084EC90E09787868780EC90E0918B808BBC
S113221081EC90E0938B828B82EC90E0958B848BA5
S113222086EC90E0978B868B118E128E138E148E13
S113223008951F920F920FB60F9211240BB60F92AE
S11322402F938F939F93EF93FF93E091A305F091C6
S1132250A4058081E091A905F091AA0582FD12C030
S113226090818091AC058F5F8F732091AD058217AB
S113227051F0E091AC05F0E0ED56FA4F958F809364
S1132280AC0501C08081FF91EF919F918F912F91B7
S11322900F900BBE0F900FBE0F901F9018951F92BA
S11322A00F920FB60F9211240BB60F922F933F93F8
S11322B04F935F936F937F938F939F93AF93BF934A
S11322C0EF93FF9383E995E02CDEFF91EF91BF91AB
S11322D0AF919F918F917F916F915F914F913F91BA
S11322E02F910F900BBE0F900FBE0F901F9018955B
S11322F083E995E09EDD21E0892B09F420E0822F1B
S11323000895E3E9F5E01382128288EE93E0A0E0F9
S1132310B0E084839583A683B7838BE294E09183B2
S113232080838DEC90E0958784878CEC90E0978790
S1132330868788EC90E0918B808B89EC90E0938B7E
S1132340828B8AEC90E0958B848B8EEC90E0978B5B
S1132350868B118E128E138E148E08958F929F92F7
S1132360AF92BF92CF92DF92EF92FF920F931F939F
S1132370CF93DF937C018B014C0182E0880E911C8A
S11323805701E5E0AE0EB11CC0E0D0E0F40161916C
S11323904F014AE050E0C80145D16C016EE2C8012A
S11323A0B3D08C0D9D1DC80FD91F8A149B0471F7DF
S11323B04AE050E0F7016581C80134D18C0F9D1FBC
S11323C0DF91CF911F910F91FF90EF90DF90CF900D
S11323D0BF90AF909F908F9008952DE334E0FC015F
S11323E031832083128213821482158208950F93FD
S11323F0FC018DE394E0918380836283438324838F
S113240005830F910895089527D3FDDF12DBC6E5F8
S1132410DFE037DB2097E9F349DDFBCF0C943A2E5C
S11324200C943A2ECF92DF92EF92FF920F931F9368
S1132430CF93DF936C017A018B01C0E0D0E0CE151D
S1132440DF0581F0D8016D918D01D601ED91FC91EC
S11324500190F081E02DC6011995892B11F0219688
S1132460EECF7E01C701DF91CF911F910F91FF90B5
S1132470EF90DF90CF9008956115710579F0FB011D
S113248001900020E9F73197AF01461B570BDC019F
S1132490ED91FC910280F381E02D199480E090E0AD
S11324A00895EF92FF920F931F93CF93DF938C01C4
S11324B07B01C0E0D0E0F701EC0FFD1F64916623BF
S11324C061F0D801ED91FC910190F081E02DC801FB
S11324D01995892B11F02196EECFCE01DF91CF9182
S11324E01F910F91FF90EF900895DB0114964D9189
S11324F05C9115976D917C91DC01ED91FC910280CA
S1132500F381E02D1994B8CFDC01ED91FC91019099
S1132510F081E02D19946DE874E0AECF0F931F9312
S1132520CF93DF93EC01BDDF8C01CE01F4DF800F8C
S1132530911FDF91CF911F910F9108950F931F93D6
S1132540CF93DF93EC01D1DF8C01CE01E4DF800F68
S1132550911FDF91CF911F910F9108950F931F93B6
S1132560CF93DF93EC0188DF8C01CE01D4DF800FA1
S1132570911FDF91CF911F910F9108958F929F9298
S1132580AF92BF92EF92FF920F931F93CF93DF937B
S1132590CDB7DEB7A1970FB6F894DEBF0FBECDBF9F
S11325A07C01FA01CB0119A2223008F42AE08E0141
S11325B00F5D1F4F822E912CA12CB12CBF01A501C0
S11325C094010E94D82DF901CA01015011096A3001
S11325D010F4605D01C0695CD8016C93232B242B3B
S11325E0252B61F7B801C70147DFA1960FB6F89410
S11325F0DEBF0FBECDBFDF91CF911F910F91FF9032
S1132600EF90BF90AF909F908F9008952115310562
S113261041F4DC01ED91FC910190F081E02D642FF7
S11326201994ACCF9A01462F50E060E070E0EECFF1
S11326300F931F93CF93DF93EC01F4DF8C01CE0152
S11326406ADF800F911FDF91CF911F910F91089541
S11326509A01AB0160E070E0D9CFCF92DF92EF92A4
S1132660FF920F931F93CF93DF932115310581F4CC
S1132670DC01ED91FC910190F081E02D642FDF915C
S1132680CF911F910F91FF90EF90DF90CF9019940D
S11326902A303105F1F477FF1BC06A017B01EC019C
S11326A06DE232DF8C0144275527BA014C195D09CC
S11326B06E097F092AE0CE0161DF800F911FDF914F
S11326C0CF911F910F91FF90EF90DF90CF900895DD
S11326D02AE0DF91CF911F910F91FF90EF90DF904F
S11326E0CF904CCF9A01AB01770F660B770BB5CF28
S11326F00F931F93CF93DF93EC01F4DF8C01CE0192
S11327000ADF800F911FDF91CF911F910F910895E0
S11327100F931F93CF93DF93EC019FDF8C01CE01C6
S1132720FADE800F911FDF91CF911F910F910895D1
S11327307F928F929F92AF92BF92CF92DF92EF924D
S1132740FF920F931F93CF93DF938C016A017B0158
S1132750722E9A01AB01C701B6010E94D42D8823C1
S113276019F06FE374E027C046015701E894B7F805
S11327702FEF3FEF4FE75FE7C501B4010E94D42D6F
S113278081110DC02FEF3FEF4FE75FE7C501B401A3
S11327900E94792D18161CF463E474E00CC02FEF2A
S11327A03FEF4FE75FE4C701B6010E94D02D181632
S11327B08CF467E474E0C801DF91CF911F910F910D
S11327C0FF90EF90DF90CF90BF90AF909F908F904D
S11327D07F9052CE2FEF3FEF4FE75FECC701B6017A
S11327E00E94792D87FDE5CF20E030E0A901C701E3
S11327F0B6010E94792D87FF09C06DE2C80184DE0D
S1132800EC01F7FAF094F7F8F09402C0C0E0D0E0DD
S1132810B12C60E070E080E09FE37B1439F020E0AD
S113282030E040E251E4ACD9B394F7CFA70196016C
S113283043D96B017C010E947D2D4B015C012AE090
S1132840AB01BC01C8019ADEC80FD91F772081F102
S1132850C501B401FDD99B01AC01C701B6012BD957
S11328606B017C016EE2C8014FDEC80FD91F20E066
S113287030E040E251E4C701B60178DA4B015C0173
S11328800E947D2D6B017C014AE050E0C801E0DE2E
S1132890C80FD91FB60180E090E0DAD99B01AC01E2
S11328A0C501B40108D96B017C017A947110DFCFA2
S11328B0CE01DF91CF911F910F91FF90EF90DF90A8
S11328C0CF90BF90AF909F908F907F9008950F937B
S11328D01F93CF93DF93EC012BDF8C01CE011BDE22
S11328E0800F911FDF91CF911F910F9108951F9237
S11328F00F920FB60F9211242F933F938F939F93B0
S1132900AF93BF938091310690913206A091330624
S1132910B09134063091300628E1230F2D3720F48E
S11329200896A11DB11D05C02BE9230F0996A11D11
S1132930B11D209330068093310690933206A09304
S11329403306B09334068091350690913606A091F3
S11329503706B09138060196A11DB11D8093350646
S113296090933606A0933706B0933806BF91AF9183
S11329709F918F913F912F910F900FBE0F901F90B9
S113298018952FB7F89460913106709132068091B2
S11329903306909134062FBF08953FB7F894809181
S11329A0350690913606A0913706B091380626B5C3
S11329B0A89B05C02F3F19F00196A11DB11D3FBF73
S11329C0BA2FA92F982F8827820F911DA11DB11D01
S11329D0BC01CD0145E0660F771F881F991F4A95FA
S11329E0D1F708958F929F92AF92BF92CF92DF92C8
S11329F0EF92FF926B017C01D0DF4B015C01C114AB
S1132A00D104E104F104F9F00E94B424C6DFDC012E
S1132A10CB0188199909AA09BB09883E9340A105ED
S1132A20B10568F321E0C21AD108E108F10888EE83
S1132A30880E83E0981EA11CB11CC114D104E104CA
S1132A40F10421F7DCCFFF90EF90DF90CF90BF909F
S1132A50AF909F908F900895789484B5826084BDE0
S1132A6084B5816084BD85B5826085BD85B581608E
S1132A7085BDEEE6F0E0808181608083E1E8F0E0EE
S1132A801082808182608083E0E8F0E08081816050
S1132A908083E1EBF0E0808184608083E0EBF0E010
S1132AA0808181608083E1E9F0E0808182608083BD
S1132AB0808181608083E0E9F0E0808181608083AF
S1132AC0E1EAF0E08081826080838081816080839C
S1132AD0E0EAF0E0808181608083E1E2F1E08081DE
S1132AE082608083808181608083E0E2F1E0808184
S1132AF081608083EAE7F0E0808184608083808164
S1132B008D7F808380818E7F8083808180688083B5
S1132B101092C1000895863308F0865390917B008B
S1132B20282F2870977F922B90937B0020911C0272
S1132B3090E4299F900111248770822B80937C005C
S1132B4080917A00806480937A0080917A0086FD77
S1132B50FCCF809178002091790090E0922B089529
S1132B601F93CF93DF93182FEB0161E016D12097C9
S1132B7011F460E004C0CF3FD10531F461E0812F4E
S1132B80DF91CF911F9145C1E12FF0E0E154FB4F5C
S1132B90E4918E2F90E0FC013197E231F10508F0C9
S1132BA09DC08827EE58FF4F8F4F0C94FA2D84B5A3
S1132BB0806884BDC7BD97C084B5806284BDC8BD2C
S1132BC092C080918000806880938000D0938900B7
S1132BD0C093880088C080918000806280938000C8
S1132BE0D0938B00C0938A007EC08091800088605F
S1132BF080938000D0938D00C0938C0074C080912A
S1132C00B00080688093B000C093B3006CC0809122
S1132C10B00080628093B000C093B40064C080911F
S1132C209000806880939000D0939900C09398009E
S1132C305AC080919000806280939000D0939B0052
S1132C40C0939A0050C08091900088608093900057
S1132C50D0939D00C0939C0046C08091A0008068E2
S1132C608093A0008091A0008F7B8093A000D093DC
S1132C70A900C093A80037C08091A000806280930F
S1132C80A000D093AB00C093AA002DC08091A000F7
S1132C9088608093A000D093AD00C093AC0023C0A3
S1132CA080912001806880932001D0932901C093F2
S1132CB0280119C080912001806280932001D09363
S1132CC02B01C0932A010FC080912001886080935A
S1132CD02001D0932D01C0932C0105C0C038D1052B
S1132CE00CF04CCF46CFDF91CF911F91089590E027
S1132CF0FC013197E231F10508F04EC08827EC570A
S1132D00FF4F8F4F0C94FA2D809180008F7703C072
S1132D10809180008F7D8093800008958091800051
S1132D20877FF9CF84B58F7702C084B58F7D84BD4A
S1132D3008958091B0008F7703C08091B0008F7D9B
S1132D408093B0000895809190008F7707C08091A0
S1132D5090008F7D03C080919000877F80939000C6
S1132D6008958091A0008F7707C08091A0008F7D87
S1132D7003C08091A000877F8093A0000895809174
S1132D8020018F7707C0809120018F7D03C080913F
S1132D902001877F809320010895CF93DF9390E0F3
S1132DA0FC01EB5FFA4F2491FC01E55BFA4F84913F
S1132DB0882361F190E0880F991FFC01E555FA4FD3
S1132DC0C591D491FC01EF56FA4FA591B4916111CC
S1132DD009C09FB7F8948881209582238883EC9159
S1132DE02E230BC0623061F49FB7F8948881322F90
S1132DF0309583238883EC912E2B2C939FBF06C0A0
S1132E008FB7F894E8812E2B28838FBFDF91CF9161
S1132E1008951F93CF93DF93282F30E0F901E154F5
S1132E20FB4F8491F901EB5FFA4FD491F901E55B13
S1132E30FA4FC491CC23B9F0162F811158DFEC2F2F
S1132E40F0E0EE0FFF1FEF56FA4FA591B4919FB734
S1132E50F894111104C08C91D095D82302C0EC9140
S1132E60DE2BDC939FBFDF91CF911F910895FF92DA
S1132E700F931F93CF93DF93082F162FF42EC22F97
S1132E80D8E06C2FF11005C06170802FC2DFC695A9
S1132E9006C0661F6627661F802FBBDFCC0F61E06C
S1132EA0812FB7DF60E0812FB4DFD15051F7DF917C
S1132EB0CF911F910F91FF900895FC018081918122
S1132EC0009711F00C94D22E0895CF93DF93EC0168
S1132ED088819981009711F00E94D22E198218825C
S1132EE01D821C821B821A82DF91CF9108950F9359
S1132EF01F93CF93DF93EC018B016F5F7F4F88812A
S1132F0099810E945B2F009731F0998388831B83FA
S1132F100A8381E001C080E0DF91CF911F910F917E
S1132F200895CF93DF93EC0188819981892B29F04F
S1132F308A819B818617970758F4CE01D8DF8823AE
S1132F4041F08C819D81892B19F4E881F9811082EB
S1132F5081E0DF91CF910895EF92FF920F931F9339
S1132F60CF93DF93EC017B018A01BA01DADF81118F
S1132F7003C0CE01AADF07C01D830C83B70188817B
S1132F8099810E94C930CE01DF91CF911F910F9199
S1132F90FF90EF900895FC01118210821382128237
S1132FA0158214826115710549F0FB01019000201E
S1132FB0E9F73197AF01461B570BCECF0895CF9356
S1132FC0DF93EC01FB018617970751F06081718153
S1132FD06115710521F044815581BEDF01C075DFA3
S1132FE0CE01DF91CF910895FC01118210821382EA
S1132FF0128215821482E3CFCF93DF93EC01611523
S1133000710551F0FB0101900020E9F73197AF0100
S1133010461B570BA1DF01C058DFCE01DF91CF91D2
S113302008950F931F93CF93DF93CDB7DEB76297C5
S11330300FB6F894DEBF0FBECDBF8C01CB01F801F3
S113304011821082138212821582148250E0BE0112
S11330506F5F7F4F0E940431BE016F5F7F4FC801D5
S1133060CBDF62960FB6F894DEBF0FBECDBFDF9103
S1133070CF911F910F910895EF92FF920F931F9399
S1133080CF93DF93CDB7DEB7A1970FB6F894DEBF29
S11330900FBECDBF7C01CB01BA01F70111821082B2
S11330A0138212821582148242E0420F8E010F5F56
S11330B01F4F0E941B2EBC01C7019EDFA1960FB6B5
S11330C0F894DEBF0FBECDBFDF91CF911F910F915A
S11330D0FF90EF900895EF92FF920F931F93CF9379
S11330E0DF936115710511F480E01BC04115510592
S11330F0B9F07B01EC018C819D818A01080F191FB5
S1133100B801CE010EDF882379F3288139818C81BF
S11331109D81B701820F931F0E94C9301D830C83C8
S113312081E0DF91CF911F910F91FF90EF9008956F
S1133130CF93DF931F921F92CDB7DEB769831A82B4
S113314041E050E0BE016F5F7F4FC5DF0F900F90ED
S1133150DF91CF910895CF93DF93EC01FB0144817C
S1133160558160817181B7DF811102C0CE01ADDE6E
S1133170CE01DF91CF910895CF93DF93EC016115D8
S1133180710559F0FB0101900020E9F73197AF0177
S1133190461B570BA0DF811102C0CE0196DECE0183
S11331A0DF91CF910895FC0124813581232B31F4E3
S11331B021E061157105A1F0FB0108C0FC018081CB
S11331C091816115710531F421E0FC01808188232E
S11331D039F005C00E94C03021E0892B09F020E0BD
S11331E0822F08950F931F93CF93DF9341155105B9
S11331F019F16115710501F1DC011496ED91FC9151
S113320015972E173F0718F0FB01108215C0E21B1B
S1133210F30BEA012197EC17FD0708F4EF018B018A
S1133220FC0160817181620F731FAE01C8010E94AD
S1133230D030C00FD11F1882DF91CF911F910F9111
S11332400895CF93DF93FC012481358142175307FE
S113325080F4FB01DC01CD91DC9160817181CE01B0
S1133260840F951F0E94EA30009719F08C1B9D0B68
S113327002C08FEF9FEFDF91CF91089540E050E0BF
S1133280E0CFAF92BF92CF92DF92EF92FF920F9373
S11332901F93CF93DF937B018A01FB014481558106
S11332A04115510561F1FC01248135812115310558
S11332B031F12417350718F10217130718F08901A3
S11332C001501109FC01A080B180C501DFEFCFEFEF
S11332D06501C00ED11EC816D906A0F0F7016081A1
S11332E071810E94EA30009769F09C012A193B0918
S11332F00217130710F0D22FC32F0196ECCF8FEFD4
S11333009FEF02C08D2F9C2FDF91CF911F910F91C2
S1133310FF90EF90DF90CF90BF90AF9008952F92E1
S11333203F924F925F926F927F928F929F92AF9251
S1133330BF92CF92DF92EF92FF920F931F93CF939E
S1133340DF93FC01448055804114510409F4CCC03E
S1133350FB01848095808114910409F4C5C07A012D
S11333606B018C01FA016480758068187908FC018E
S1133370C081D18161147104B9F4F6016081718155
S1133380CE010E94EA30EC01009709F4ADC0F701C8
S113339060817181448155810E949F30F70184814D
S11333A09581C80FD91FE9CF77FE44C05E01F601AD
S11333B060817181C5010E94EA302C01009721F1DE
S11333C04C018A189B08A401B501CE010E949F30CC
S11333D0C80DD91DF7016081718144815581CE01E9
S11333E00E949F30F70184819581C80FD91FF6018F
S11333F0A480B580A40CB51CF80184819581860D48
S1133400971D95838483D3CFB501CE01DF91CF91EE
S11334101F910F91FF90EF90DF90CF90BF90AF90EE
S11334209F908F907F906F905F904F903F902F90E0
S11334300C94C930FB01208031805201B101CE01CE
S11334400E94EA30009731F0EC01C80DD91DA60C9A
S1133450B71CF4CFA414B50409F446C0F801828162
S113346093818A159B0528F4B501C80140DD8823A2
S1133470D9F1F801448155814150510957FD34C0B7
S1133480B601C801FEDEEC0197FD2EC0F6012481D1
S11334903581280F391FF80180819181820F931F94
S11334A044815581421B530BBC01860D971D0E941C
S11334B0A830F80184819581860D971D95838483B6
S11334C020813181F901E80FF91F1082F801808110
S11334D09181F70160817181448155818C0F9D1F19
S11334E00E949F30AE01C8CFDF91CF911F910F9101
S11334F0FF90EF90DF90CF90BF90AF909F908F9010
S11335007F906F905F904F903F902F900895AF926F
S1133510BF92CF92DF92EF92FF920F931F93CF93BC
S1133520DF93DC01CD90DC901197C114D10409F430
S11335303FC01496CD91DC9115972097C9F18C0169
S113354076015701BFEFAB1ABB0AF701808190E007
S11335500E947E30892B11F07501F3CF2197CC0D99
S1133560DD1D888190E00E947E30892B29F0CE15E4
S1133570DF0510F02197F5CFAE014F5F5F4F4E1975
S11335805F09D80115965C934E931497CE14DF040B
S113359020F4B701C6010E949F30D801ED91FC913F
S11335A0119714968D919C911597E80FF91F10822D
S11335B0DF91CF911F910F91FF90EF90DF90CF900B
S11335C0BF90AF900895FC0180819181009711F024
S11335D00C94583060E070E0CB0108951F93CF93B2
S11335E0DF93EC01162FCDD9688B798B8A8B9B8B5B
S11335F08C819D81DC01ED91FC910190F081E02DA5
S1133600612FDF91CF911F911994EF92FF920F9345
S11336101F93CF93DF93EC018B017A01B2D9688BAE
S1133620798B8A8B9B8B8C819D81DC01ED91FC9144
S11336300280F381E02DA701B801DF91CF911F91A2
S11336400F91FF90EF9019948F929F92AF92BF9237
S1133650CF92DF92EF92FF920F931F93CF93DF935A
S1133660EC018B018ED94B015C018C819D81DC01C5
S1133670ED91FC910084F185E02D1995892BB1F42D
S11336800E94B4247ED92C853D856B017C01C81829
S1133690D908EA08FB08A8EEB3E00E94022EC61679
S11336A0D706E806F90608F380E00CC08C819D81FA
S11336B0DC01ED91FC910284F385E02D1995F8016C
S11336C0808381E0DF91CF911F910F91FF90EF9064
S11336D0DF90CF90BF90AF909F908F9008950F93FD
S11336E01F93CF93DF938A01FA01C081D1816C0FBC
S11336F07D1FAADF882321F02196F801D183C0839E
S1133700DF91CF911F910F9108952F923F924F9285
S11337105F926F927F928F929F92AF92BF92CF925D
S1133720DF92EF92FF920F931F93CF93DF93CDB766
S1133730DEB72C970FB6F894DEBF0FBECDBF8C0159
S11337401B011A821982DC0116966D917C911797E0
S1133750AE014F5F5F4FC3DF882301F1D801169696
S1133760ED91FC91179770801B82812C912C540150
S1133770C12CD12C7601C39489819A81059791F447
S11337808FEF9FEFF80190A787A384819581DC01D7
S1133790ED91FC910488F589E02D199560E070E0C5
S11337A0CB01FAC0BE016D5F7F4FC8014DDF882396
S11337B0A9F3F8014681578189819A819C012F5F81
S11337C03F4F3A8329832B81FA01E80FF91F2083A5
S11337D0EB81AE2FAF77B0E0A70196010E94112EC6
S11337E0860E971EA81EB91E37E0CC0CDD1CEE1CFD
S11337F0FF1C3A95D1F7E7FDBFCFF72DF07FFC838F
S113380089818150D1018C93F03389F5F801668167
S11338107781AE014F5F5F4FC80161DF882309F4F0
S1133820BDCFD80116966D917C911797AE014F5F6D
S11338305F4FC80154DF882309F4B0CFD80116962E
S1133840ED91FC911797D1018C91DF01A80FB11D67
S113385011968C91119790E0982F882712962C91AD
S1133860820F911D208121FF09C0029607C0F0E05C
S1133870E0E030E020E080E090E004C0F2E0E0E04E
S113388030E020E049815A8160E070E0CF2EDE2EE6
S1133890E32EF22E2A013B014C185D086E087F08C6
S11338A04D825E826F8278862C01612C712C498650
S11338B05A866B867C864D805E806F8078844C0C43
S11338C05D1C6E1C7F1CC814D904EA04FB0408F0B8
S11338D04BC0BE016D5F7F4FC801B6DE882309F47B
S11338E05DCFD80195968D919C919697009711F193
S11338F0BC81B033F9F4F10120814EEF5FEF6FEF3B
S11339007FEF421B510961097109440E551E661E61
S1133910771E29853A854B855C8524153505460532
S1133920570540F4DC01ED91FC910190F081E02D0C
S11339306B81199589819A81F801208531858217D7
S1133940930760F42B8146815781FA01E80FF91F30
S1133950208389819A8101969A838983FFEFCF1A04
S1133960DF0AEF0AFF0AA7CFD80195968D919C91A3
S11339709697892B69F418968D919C911997A0E0DC
S1133980B0E084159505A605B70510F41A821982CE
S113399069817A8180E090E02C960FB6F894DEBFBE
S11339A00FBECDBFDF91CF911F910F91FF90EF908C
S11339B0DF90CF90BF90AF909F908F907F906F904B
S11339C05F904F903F902F900895CF93DF9300D056
S11339D01F92CDB7DEB780E0922F9F77220F232F5F
S11339E0221F330B31952115310509F09068E1E070
S11339F0F0E0EC0FFD1FE80FF11D90838F5F2115A0
S1133A00310551F790E0FA01E81BF90B6483DE01FC
S1133A101196FA01E81BF90B35964B5F5F4FE417DB
S1133A20F50719F02D912193FACF01960F900F907D
S1133A300F900F90DF91CF910895EF92FF920F9323
S1133A401F93CF93DF937C01EA018901BEDF9C01C0
S1133A50D70114968D919C9115973327020F131F4C
S1133A60BE01621B730B6B5F7F4FDC01ED91FC9118
S1133A700280F381E02DA8011995EC010E94C11484
S1133A80F701608B718B828B938B81E00C171D0780
S1133A9009F080E0DF91CF911F910F91FF90EF909B
S1133AA00895CF93DF93F9013296E40FF51FEB01EC
S1133AB0DE01A61BB70BCF01841B950B2991222392
S1133AC011F02193F5CF9C012A1B3B0B420F531F8E
S1133AD0FA013297B0833196A083DF91CF91089594
S1133AE0CF93DF93FC01A481B581109749F1EC01D8
S1133AF0ED91FC9111970688F789E02DCD01199578
S1133B002FA138A5811119C0232BD1F48DEF9FEF7C
S1133B1098A78FA38C819D81DC01ED91FC91068097
S1133B20F781E02D19958C819D81DC01ED91FC914B
S1133B300488F589E02D199503C081E0232B09F051
S1133B4080E0DF91CF9108952F923F924F925F9240
S1133B506F927F928F929F92AF92BF92CF92DF9299
S1133B60EF92FF920F931F93CF93DF93CDB7DEB7FE
S1133B7060970FB6F894DEBF0FBECDBF3C017A87C5
S1133B8069871A012901ACDFD82E811190C1D301B4
S1133B9014968D919C911597DC01ED91FC9106880A
S1133BA0F789E02D1995882399F081E090E0F301DD
S1133BB09787868787E0EFE2F2E0DE0111960190B5
S1133BC00D928A95E1F7FE01319685E090E03CC0C4
S1133BD0D30191966D917C91929714968D919C91BD
S1133BE015979396ED91FC919497F88BEF87DC01F0
S1133BF0ED91FC916115710531F00088F189E02D9A
S1133C004F85588917C00684F785E02D2DE334E0ED
S1133C103A832983D3015D962D913D914D915C9119
S1133C2090972B833C834D835E834F855889BE01D7
S1133C306F5F7F4F1995019709F4B7CF8EEF9FEF10
S1133C40F30190A787A333C12191D30116964D9117
S1133C505C911797DA01A80FB91F2C9301968C3049
S1133C60910591F70115110559F0B0E2CB9EC00101
S1133C7011248460E8E0EE9E700111248E2901C0B5
S1133C8080E0811082602114310431F04114510428
S1133C9011F4806801C0806CD3011696ED91FC91FB
S1133CA0179784871696ED91FC9117971B968C9124
S1133CB01B9785871696ED91FC9117971A968C9110
S1133CC01A9786871896ED90FC901997B701898505
S1133CD09A850E94DF304196F301E816F90608F44C
S1133CE0DDC0468157812FE030E069857A85C301C4
S1133CF0D8DE7C010115110591F1D30118968D9040
S1133D009C901997B401C8010E94DF3097012E5F7F
S1133D103F4F820F931FF3018816990608F4BEC023
S1133D20468157819701B801C301BBDE8C01D301E1
S1133D301896ED90FC901997B701C5010E94DF30E9
S1133D40800F911F0296F301E816F90608F4A6C045
S1133D50468157819801B501C301A3DE7C0121147A
S1133D603104B9F1D30118960D911C911997B8013A
S1133D70C1010E94DF3097012E5F3F4F820F931FD6
S1133D80F3010817190708F489C046815781970180
S1133D90B101C30186DE7C0141145104D1F0D30189
S1133DA018960D911C911997B801C2010E94DF3039
S1133DB097012E5F3F4F820F931FF30108171907D6
S1133DC008F46CC0468157819701B201C30169DED2
S1133DD07C01970125503109D30116964D915C91D0
S1133DE0179760E1C30129DE0E94C114F301608BBF
S1133DF0718B828B938B648B758B868B978BF30182
S1133E0084819581DC01ED91FC910084F185E02DA4
S1133E101995892BE9F40E94C114F3012485358591
S1133E2084889588A688B7887B018C01E818F908EE
S1133E300A091B09A8EEB3E00E94022EE616F70653
S1133E4008071907E0F28CEF9FEF90A787A326C01D
S1133E50BE01685F7F4FC30158DC64307105810582
S1133E609105D9F4D3011696ED91FC9117978381AE
S1133E7081110DC00E94C114F301648B758B868B74
S1133E80978B108E10A617A2DD24D39410C090E057
S1133E90D30198969C938E939797F301848195818F
S1133EA0DC01ED91FC910488F589E02D19958D2DA7
S1133EB060960FB6F894DEBF0FBECDBFDF91CF91F1
S1133EC01F910F91FF90EF90DF90CF90BF90AF9034
S1133ED09F908F907F906F905F904F903F902F9026
S1133EE008958F92AF92BF92CF92EF920F931F9348
S1133EF088248394A12CB12CC12CE12C00E010E087
S1133F0020E030E040E050E01FDE1F910F91EF9081
S1133F10CF90BF90AF908F9008952F923F924F9281
S1133F205F926F927F928F929F92AF92BF92CF9245
S1133F30DF92EF92FF920F931F93CF93DF9300D002
S1133F40CDB7DEB78C01CCDDD82E882309F457C158
S1133F500E94C1144B015C01D8011A962D913C9129
S1133F601B97A8EEB3E00E94022EF80144885588FE
S1133F7066887788A50194012419350946095709EB
S1133F80621773078407950780F040885188628818
S1133F907388A50194012419350946095709621744
S1133FA073078407950708F040C0D80158968C9190
S1133FB05897882391F08CEF9FEF98969C938E935B
S1133FC0979714968D919C911597DC01ED91FC9136
S1133FD00488F589E02D199511C1D8011696ED9143
S1133FE0FC91179780EC80831696ED91FC911797BE
S1133FF0118214968D919C91159716966D917C91D2
S11340001797DC01ED91FC910280F381E02D42E0F1
S113401050E01995F801808A918AA28AB38A848A29
S1134020958AA68AB78A81E0808FF8018481958178
S1134030DC01ED91FC910084F185E02D1995892B2B
S113404009F4DDC0BE016F5F7F4FC8015EDB2B0149
S11340503C01672B09F4CEC0F801848A958AA68AAC
S1134060B78A0680F781E02D8081807F803309F054
S1134070A0C0D80159968D919C915A97892B09F427
S1134080BEC0298130E0C90102968E0F9F1FDF0157
S1134090A20FB31F1196EC90F12CFE2CEE24DC0140
S11340A04C91E40EF11C2D5F3F4FBF01620F731F53
S11340B0A7010E94A8308981D8011696ED91FC9140
S11340C01797EE0DFF1DE80FF11D12821696ED9164
S11340D0FC911797298130E0C90102968E0F9F1F2A
S11340E040814670C42E59962D903C905A97B2E068
S11340F04B134DC0B701620F731FDF01A60FB71F2B
S113410013964C91139750E0542F44271496AC9176
S11341104A0F511D5B834A834BEF5FEF421B530BE6
S11341204E195F09440D551D6B5F7F4F6E0F7F1F46
S1134130F1011995D8011696ED91FC91179780E439
S113414080831696ED91FC911797C1821696ED9196
S1134150FC911797BB81B283D8011696ED91FC911F
S11341601797BA81B383F801848195816681778139
S1134170DC01ED91FC910280F381E02D44E050E0FC
S11341801995F801808A918AA28AB38A38C04DEFC2
S11341905FEF421B530B4E195F09440D551DB901C6
S11341A06D5F7F4F6E0D7F1D6E0F7F1FF10119959F
S11341B026C0803CD1F480ED8083D8011696ED9121
S11341C0FC911797118214968D919C9115971696D0
S11341D06D917C911797DC01ED91FC910280F38144
S11341E0E02D42E050E019950AC0803D41F4F80109
S11341F0108E05C0C80174DC811101C0D12C8D2D35
S11342000F900F900F90DF91CF911F910F91FF901E
S1134210EF90DF90CF90BF90AF909F908F907F9062
S11342206F905F904F903F902F9008958F929F9240
S1134230AF92BF92CF92DF92EF92FF920F93CF9300
S1134240DF936C015B01EA0179014ADC882309F4FC
S113425049C0D60118968D909C901997B401C50158
S11342600E94DF309701295F3F4F820F931F88160A
S11342709906C0F1F6014681578125E030E0B50189
S1134280C6010FDC5E01AE0CBF1CFE01EC01CE1BAF
S1134290DF0BBE016E0F7F1FD60116964D915C9108
S11342A01797EA15FB0531F02191DA01A60FB71F24
S11342B02C93EFCFB5E0EB1AF108002311F061E382
S11342C001C060E39C012E0D3F1DC601DF91CF911B
S11342D00F91FF90EF90DF90CF90BF90AF909F90A1
S11342E08F90ABCB80E0DF91CF910F91FF90EF9057
S11342F0DF90CF90BF90AF909F908F900895CF9212
S1134300DF92EF92FF920F93CF93DF937C016B01C7
S1134310EA01209739F0FC0160857185CA010E9489
S1134320DF3002C080E090E000E09C01AE01B60105
S1134330C7017CDFDF91CF910F91FF90EF90DF9069
S1134340CF900895CF92DF92FF920F931F93CF9354
S1134350DF93EC018B01F42EC884D984B601C80123
S11343600E94DF3001151105B1F121E02F1598F1FC
S11343700996C816D90678F1CE01B2DB882359F123
S11343808E859F85019611F481E090E09F878E874A
S1134390EE81FF818F858583EE81FF818E85868303
S11343A04E815F8127E030E0B801CE017ADBEE81F7
S11343B0FF81E80FF91FF0829C01245031094E81DE
S11343C05F8162E8CE01DF91CF911F910F91FF9041
S11343D0DF90CF9032CB80E0DF91CF911F910F918E
S11343E0FF90DF90CF900895FC0172A361A354A3C2
S11343F043A30895FC01728F618F0895FC0187A186
S113440090A508950F931F93CF93DF9361157105C2
S1134410C9F08B01EC0188859985892B21F4CB01A6
S11344200E943A2E06C08E819F810E945B2F0097C6
S113443049F09F838E831987088781E02E813F810D
S1134440232B09F480E0DF91CF911F910F91089500
S11344500F931F93CF93DF93EC018B011B821A827E
S11344608FE494E099838883CE014B960E94ED11EA
S11344708FEF9FEF98A78FA31D830C831EA21DA20D
S11344801986188660E071E0CE01BCDF8FE090E011
S11344909B878A879D878C87DF91CF911F910F918E
S11344A00895FC017587648708950F9300E020E068
S11344B040E060E089E396E00E94F7110F910895CF
S11344C0CF93DF93EC0167E574E086EF94E00E94FC
S11344D0831265EC75E086EF94E00E948E12CE01A3
S11344E0DF91CF91B7C6CB0121E020934006BA01FA
S11344F0D1D7811103C082E090E0089581E090E07B
S113450008950EC6E5E2F2E083E090E03291229154
S11345102F3F3F4F19F00197C8F78FEF089590E0B0
S1134520FC01EE0FFF1FE35EFD4F9183808308952E
S1134530E82FF0E0EE0FFF1FE35EFD4F8FEF9FEFDC
S11345409183808308950F9300E020E040E060E0D1
S113455081E496E00E94F7110F910895CF93DF93C1
S11345601F92CDB7DEB76983DC01ED91FC91028027
S1134570F381E02D41E050E0BE016F5F7F4F19955C
S11345800F90DF91CF910895CF93DF93EC01E881F1
S1134590F9810084F185E02DCE011995892B41F034
S11345A0E881F9810284F385E02DCE011995EFCFDE
S11345B0DF91CF91089521E0FC0184858F3F09F4B8
S11345C020E0822F0895FC0184858F3F19F0CDD11E
S11345D097FF02C080E090E008950F931F93CF935C
S11345E0DF931F921F92CDB7DEB78C01DC01ED91F2
S11345F0FC910084F185E02D1995892BC1F0198275
S11346009E012F5F3F4F40E0BE016E5F7F4FF80178
S1134610848526D38981882339F0D8011C968C910E
S113462087DF8FEFF80184878A8190E002C08FEFE3
S11346309FEF0F900F90DF91CF911F910F910895ED
S11346400F931F93CF93DF931F921F92CDB7DEB7C3
S11346508C01DC01ED91FC910084F185E02D19952C
S1134660892BC1F019829E012F5F3F4F41E0BE01AB
S11346706E5F7F4FF8018485F3D28981882339F0F6
S1134680D8011C968C9154DF8FEFF80184878A81BE
S113469090E002C08FEF9FEF0F900F90DF91CF91CA
S11346A01F910F910895EF92FF920F931F93CF9351
S11346B0DF93EC018B017A01E881F9810084F185B3
S11346C0E02D1995892B51F0A701B8018C85DF9154
S11346D0CF911F910F91FF90EF905DC78FEF9FEFE8
S11346E0DF91CF911F910F91FF90EF9008950F9359
S11346F01F93CF93DF93EC018C85843018F441151C
S1134700510529F481E090E09B838A832EC08A01BD
S113471082D381112DC081E090E09B838A8367E579
S113472074E086EF94E00E9483126CEE75E086EFED
S113473094E00E9451126FEC72E086EF94E00E94C4
S113474083124AE050E06C8586EF94E00E941813CF
S113475060EA7FE080E090E00E94F214E881F98151
S11347600488F589E02DCE01199580E090E001C020
S1134770C801DF91CF911F910F910895CF93DF93DB
S1134780FC0124852F3F01F1EC0167E574E086EF1D
S113479094E00E9483126DED75E086EF94E00E9430
S11347A051126FEC72E086EF94E00E9483124AE0AB
S11347B050E06C8586EF94E00E9418138C8558D6DF
S11347C08C85B6DE8FEF8C87DF91CF910895FC0145
S11347D01382128288EE93E0A0E0B0E08483958394
S11347E0A683B78386E694E0918380838FEF8487E2
S11347F00895DF92EF92FF920F931F93CF93DF936D
S1134800EC018B017A01D22E67E574E086EF94E027
S11348100E9483126AE176E086EF94E00E945112CE
S11348206FEC72E086EF94E00E948312B80186EF89
S113483094E00E94AE1266DE8C878F3F61F02D2DCE
S1134840482FB701C801ABD5882389F08C8567DE72
S113485081E090E00EC067E574E086EF94E00E948A
S1134860831266E076E086EF94E00E948E1280E088
S113487090E0DF91CF911F910F91FF90EF90DF9027
S1134880089520E0B6CFCF92DF92EF92FF920F937C
S11348901F93CF93DF93CDB7DEB760970FB6F8942D
S11348A0DEBF0FBECDBF7C01FB016A0185811F9273
S11348B08F9384811F928F9383811F928F93828120
S11348C01F928F9388E296E09F938F938E010F5FE0
S11348D01F4F1F930F930E944E3120E0A601B80191
S11348E0C70187DF0FB6F894DEBF0FBECDBF609659
S11348F00FB6F894DEBF0FBECDBFDF91CF911F91ED
S11349000F91FF90EF90DF90CF9008951F93CF9376
S1134910DF93EC018C858F3F79F027D0892B11F040
S113492014E00BC08C8568D3182F8111F9CF8C85C6
S1134930FFDD8FEF8C8701C010E0812FDF91CF91D5
S11349401F910895E3DF91E0843009F090E0892F0E
S113495008950F9300E020E040E060E087E496E0F3
S11349600E94F7110F9108950895CF934091540632
S11349705091550660915606709157061416150607
S11349801606170644F490915306981711F09111E6
S113499002C0CA01C4C0C82F809166069091670600
S11349A0DC01ED91FC910084F185E02D1995892BB2
S11349B019F480E090E0B3C060E874E0809166068A
S11349C0909167060E94702D882399F341E060E07E
S11349D0809166069091670665D76093530680912F
S11349E0660690916706DC01ED91FC910284F385E3
S11349F0E02D199541E060E080916606909167068C
S1134A0051D760935406709355068093560690933D
S1134A1057068091660690916706DC01ED91FC9142
S1134A200284F385E02D199541E060E080916606EB
S1134A309091670637D760934D06809166069091F2
S1134A406706DC01ED91FC910284F385E02D199554
S1134A5041E060E0809166069091670623D76093F9
S1134A604E068091660690916706DC01ED91FC91FB
S1134A700284F385E02D199541E060E0809166069B
S1134A80909167060FD760934F06809166069091C8
S1134A906706DC01ED91FC910284F385E02D199504
S1134AA041E060E08091660690916706FBD66093D2
S1134AB050068091660690916706DC01ED91FC91A9
S1134AC00284F385E02D199580916606909167061E
S1134AD0DC01ED91FC910284F385E02D199541E010
S1134AE060E08091660690916706DCD6709352066A
S1134AF0609351068091660690916706DC01ED9102
S1134B00FC910284F385E02D199580915306C81712
S1134B1011F0C1114ECF8091540690915506CF915A
S1134B2008953F924F925F926F927F928F929F92DD
S1134B30AF92BF92CF92DF92EF92FF920F931F93A7
S1134B40CF93DF936C012B01342E8EE596E085D54F
S1134B500E94C1144B015C0166246A94762C0D2CCE
S1134B60000CEE08FF080E94C114DC01CB01881977
S1134B709909AA09BB098C159D05AE05BF0508F066
S1134B8043C08FEF6816780609F03EC08091660630
S1134B9090916706DC01ED91FC910084F185E02D94
S1134BA01995892B01F38091660690916706DC01C3
S1134BB0ED91FC910284F385E02D1995682F8EE523
S1134BC096E077D54114510449F0B2018EE596E0A0
S1134BD083D5882319F085E0682E712C332019F2CF
S1134BE005E212E0C0E0D0E0F801619171918F011B
S1134BF08EE596E071D5882311F03E01B4CF21965D
S1134C00C530D10589F7AFCF0E94C114DC01CB01B7
S1134C1088199909AA09BB098C159D05AE05BF051C
S1134C2060F067E574E086EF94E00E94831264E329
S1134C3076E086EF94E00E948E12C301DF91CF915B
S1134C401F910F91FF90EF90DF90CF90BF90AF90A6
S1134C509F908F907F906F905F904F903F900895BA
S1134C608F929F92AF92BF92EF92FF920F931F93F6
S1134C70CF93DF93C0915306C813C1C07901D42FD9
S1134C808B010E94C1144B015C01809166069091D6
S1134C906706DC01ED91FC910084F185E02D199506
S1134CA0892B09F472C08091660690916706DC0135
S1134CB0ED91FC91DD2339F00484F585E02D1995FF
S1134CC0F801808319C00284F385E02D1995F80159
S1134CD080838091540690915506A0915606B09118
S1134CE057060197A109B10980935406909355067C
S1134CF0A0935606B093570680915406909155069A
S1134D00A0915606B0915706892B8A2B8B2B11F054
S1134D1081E076C065E070E080E090E00E94F214EB
S1134D208091660690916706DC01ED91FC91008408
S1134D30F185E02D1995892B59F3809166069091A0
S1134D406706DC01ED91FC910484F585E02D19954D
S1134D50D0E0E0968C179D07D9F640E066E874E051
S1134D6084EF91E0DEDE059761F067E574E086EF9D
S1134D7094E00E94831263EB76E086EF94E00E9455
S1134D808E1281E0F70180833BC00E94C114DC01D4
S1134D90CB0188199909AA09BB09803D9740A1054F
S1134DA0B10508F472CF67E574E086EF94E00E94E1
S1134DB083126AEA76E086EF94E00E9451126FEC67
S1134DC072E086EF94E00E94831240915406509161
S1134DD0550660915606709157062AE030E086EF3A
S1134DE094E00E9488131092540610925506109273
S1134DF056061092570610925306D8011C9280E072
S1134E00DF91CF911F910F91FF90EF90BF90AF90E2
S1134E109F908F900895CF92DF92EF92FF920F931D
S1134E201F93CF93DF93CDB7DEB764970FB6F89493
S1134E30DEBF0FBECDBF6B018A011F934F931F923C
S1134E408F9389E996E09F938F939E012F5F3F4F45
S1134E5079013F932F930E944E31B70180916606EA
S1134E60909167060E94AE1240E060E974E088EE1B
S1134E7093E057DE0FB6F894DEBF0FBECDBF0597A3
S1134E8049F067E574E086EF94E00E9483126EE7D0
S1134E9076E01DC08091660690916706DC01ED9175
S1134EA0FC910280F381E02DA801B601199541E03F
S1134EB060E070E080ED97E034DE039771F067E521
S1134EC074E086EF94E00E94831263E676E086EF56
S1134ED094E00E948E1280E001C081E064960FB6D7
S1134EE0F894DEBF0FBECDBFDF91CF911F910F911C
S1134EF0FF90EF90DF90CF90089580916606909197
S1134F006706DC01ED91FC910084F185E02D199593
S1134F101816190664F48091660690916706DC0100
S1134F20ED91FC910284F385E02D1995E6CF089567
S1134F30AF92BF92CF92DF92EF92FF920F931F93A3
S1134F40CF93DF935C016B017A01E901188281E060
S1134F50D4DFB50180916606909167060E948E1297
S1134F6041E0B60188EE93E0DCDD8530910551F532
S1134F708EE596E078D341E0B70184EF91E0D1DD8E
S1134F800597B9F4F70101900020E9F73197AF01D3
S1134F904E195F09980121503109BE018EE596E052
S1134FA0D4D341E060E070E080ED97E0BADD81E0C9
S1134FB018C067E574E086EF94E00E94831261E50F
S1134FC076E00AC0059760F067E574E086EF94E048
S1134FD00E94831264E476E086EF94E00E948E12CD
S1134FE080E0DF91CF911F910F91FF90EF90DF90C0
S1134FF0CF90BF90AF900895EF92FF920F931F93BD
S1135000CF93DF93CDB7DEB76E970FB6F894DEBFBC
S11350100FBECDBF1F928F9389E697E09F938F9326
S1135020CE0101967C019F938F930E944E310AE03A
S113503010E09E012B5E3F4F44E854E0B7018CE53D
S113504097E076DF0F900F900F900F900F900F90D6
S11350506E960FB6F894DEBF0FBECDBFDF91CF9131
S11350601F910F91FF90EF9008954F925F926F926E
S11350707F928F929F92AF92BF92CF92DF92EF92E4
S1135080FF920F931F93CF93DF93CDB7DEB74C01FD
S11350906B015A0139014DB65EB6CB010E949630C0
S11350A001962DB73EB7281B390B0FB6F8943EBFB7
S11350B00FBE2DBF8DB79EB701967C01B6010E942D
S11350C08F30C5010E94963001962DB73EB7281B3C
S11350D0390B0FB6F8943EBF0FBE2DBF8DB79EB7E8
S11350E001966C01B5010E948F309301A601B701AE
S11350F0C4011EDF0FB6F8945EBE0FBE4DBEDF9135
S1135100CF911F910F91FF90EF90DF90CF90BF90C0
S1135110AF909F908F907F906F905F904F90089585
S11351200F931F93CF93DF93CDB7DEB72A970FB6B4
S1135130F894DEBF0FBECDBF0AE010E09E012F5FE2
S11351403F4F4DE857E065E877E088E797E08DDF6B
S1135150882369F0CE0101968ED79C012250310933
S11351602330310530F0059731F080E005C08FEF32
S113517003C081E001C083E02A960FB6F894DEBF35
S11351800FBECDBFDF91CF911F910F9108950F9363
S11351901F931092580606E010E028E536E049E532
S11351A057E06CE477E085E497E05FDF88E596E01C
S11351B01F910F9108950F931F93CF93DF938C0149
S11351C0EB0181E09ADEB801809166069091670652
S11351D00E948E1241E060E070E0CE01DF91CF9139
S11351E01F910F919ECC68EE73E082E198E0E3DFBB
S11351F068EB7BE080E090E00E94F21480E07DDECA
S113520068EE73E08DE098E0D6DF68EE73E081E04D
S113521098E0D1DF68EC70E080E090E00E94F21446
S113522068EE73E085EF97E0C6DF68EE73E087EE23
S113523097E0C1DF68EE73E087ED97E0BCDF68EECE
S113524073E089EC97E0B7DF68EC70E080E090E011
S11352500C94F214CF93DF939093670680936606C1
S1135260C5E0D0E068EE73E08FE698E0A4DF892B18
S1135270E1F068EE73E080E090E00E94F214219780
S113528089F767E574E086EF94E00E94831262E593
S113529078E086EF94E00E948E1268E873E180E083
S11352A090E0DF91CF910C94F2149DDF70DF809138
S11352B058068153823020F4809159068E32E9F0E9
S11352C067E574E086EF94E00E94831264E378E07B
S11352D086EF94E00E9451126FEC72E086EF94E046
S11352E00E94831268E576E086EF94E00E94AE1295
S11352F060EA7FE080E090E0D4CF67E574E086EF79
S113530094E00E94831269E178E086EF94E00E94C1
S113531051126FEC72E086EF94E00E94831268E50C
S113532076E086EF94E0DF91CF910C94AE12CF93A8
S1135330DF93CDB7DEB7C85CD1090FB6F894DEBFF2
S11353400FBECDBF9E012E523F4FC253DF4F488147
S11353505981CE5CD04068EC70E0CE010196CCD788
S113536081E0CBDDBE016F5F7F4F80916606909137
S113537067060E94AE1241E060E070E0C053DF4F68
S113538088819981C05DD040CCDBC853DF4F0FB614
S1135390F894DEBF0FBECDBFDF91CF910895FF9289
S11353A00F931F93CF93DF93D82F192F062FF72E28
S11353B0C42F211119C07F936F939F938F931F92D2
S11353C04F9383E18F9388E88F9388E297E09F93CC
S11353D08F93ADDFFC018DB79EB70A960FB6F89494
S11353E09EBF0FBE8DBF3AC02230F1F468EE73E069
S11353F085E197E0E0DEFF920F931F93DF931F9206
S1135400CF9383E18F9388E88F9388EF96E09F93FF
S11354108F938DDFFC018DB79EB70A960FB6F89473
S11354209EBF0FBE8DBF1AC02130C1F47F936F930E
S11354309F938F931F924F9383E18F9388E88F9369
S113544087ED96E09F938F9372DFFC018DB79EB733
S11354500A960FB6F8949EBF0FBE8DBF81E0EF2B66
S113546009F080E0DF91CF911F910F91FF90089593
S11354701F928F938FE08F9380EA8F9388EC96E04E
S11354809F938F9354DF0F900F900F900F900F9076
S11354900F900895CF93DF93D82FC92F7F936F93E5
S11354A09F938F938EE48F9380E28F9382EB97E0A8
S11354B09F938F933CDF2DB73EB7285F3F4F0FB6C6
S11354C0F8943EBF0FBE2DBF67E574E0892BC1F48D
S11354D086EF94E00E94831265EA77E086EF94E019
S11354E00E9451126FEC72E086EF94E00E948312E6
S11354F06D2F7C2F86EF94E00E94AE1281E01FC0D6
S113550086EF94E00E94831260E977E086EF94E0EE
S11355100E9451126FEC72E086EF94E00E948312B5
S11355206D2F7C2F86EF94E00E94AE1268EE73E03C
S113553080E090E00E94F21480E0DFDC80E0DF9104
S1135540CF910895CF92DF92EF92FF920E94C114FF
S11355506B017C018091660690916706DC01ED91F8
S1135560FC910284F385E02D199597FF0FC00E94EA
S1135570C114DC01CB018C199D09AE09BF09883E19
S11355809340A105B10530F38FEF9FEFFF90EF90AB
S1135590DF90CF900895CF92DF92EF92FF920F9316
S11355A01F93CF93DF938A0190915306981334C0CD
S11355B08091540690915506A0915606B0915706D5
S11355C06A01E12CF12C8C159D05AE05BF050CF488
S11355D08C01EB017B01E00EF11ECE15DF05D1F04D
S11355E0B1DF8F3F2FEF9207D1F08993809154065A
S11355F090915506A0915606B09157060197A109BE
S1135600B1098093540690935506A0935606B0931F
S11356105706E3CFC80105C080E090E002C08FEFD9
S11356209FEFDF91CF911F910F91FF90EF90DF904B
S1135630CF9008950F9300E020E040E060E088E61A
S113564096E00E94F71160E270E08EE596E00F911B
S113565016C08EE596E000C00895FC0122813381D6
S1135660378326830895FC018281938197838683FF
S1135670408151814F5F5F4F60E070E07AC50F93C6
S11356801F93CF93DF938C01EB01FC017183608343
S1135690CB0101960E941012F80193838283C80FF4
S11356A0D91FD583C483C801DF91CF911F910F9176
S11356B0DACFFC01A681B7816C938681978101962C
S11356C097838683248135818217930720F0828112
S11356D09381978386830895CF93DF93DC01FB0145
S11356E001900020E9F731979F01261B370B16968E
S11356F0ED91FC911797E21BF30B12968D919C91FF
S11357001397E817F90728F44D915C911197E40F6A
S1135710F51F260F371FEB016217730780F46F5FC5
S11357207F4F5881408154130CC0319614964D918B
S11357305C911597E417F50771F7FC01ECCF81E054
S113574001C080E0DF91CF910895FC01CB0162811B
S113575073810680F781E02DE61BF70BE41BF50B44
S11357602E173F0710F0AF0101C0A90119C50F930F
S11357701F93CF93DF93EC010E94C114688779874C
S11357808A879B87E881F9810284F385E02DCE0125
S1135790199597FF17C00E94C114088519852A8599
S11357A03B85DC01CB01801B910BA20BB30B0C815D
S11357B01D812E813F8180179107A207B30710F343
S11357C08FEF9FEFDF91CF911F910F9108950F936A
S11357D01F93CF93DF93EC010E94C11468877987EC
S11357E08A879B87E881F9810484F585E02DCE01C1
S11357F0199597FF17C00E94C114088519852A8539
S11358003B85DC01CB01801B910BA20BB30B0C81FC
S11358101D812E813F8180179107A207B30710F3E2
S11358208FEF9FEFDF91CF911F910F9108950F9309
S11358301F93CF93DF93EC01162F042FCE01C7DF04
S113584097FD2BC08D32910509F19C01205331093C
S11358502A30310510F1002319F08E329105C1F080
S11358601130C9F0123051F48D30910539F024F41F
S11358700997029718F00FC0809769F4E881F981BD
S11358800284F385E02DCE011995D8CF8DE201C0B5
S11358908EE290E002C08FEF9FEFDF91CF911F91D6
S11358A00F910895BF92CF92DF92EF92FF920F93E0
S11358B01F93CF93DF938C01C42F40E0B8DFFC012A
S11358C097FD43C0C12CD12C7601B12CD0E0EC174C
S11358D0FD0701F1ED32F105D9F0CF01C0970A9728
S11358E0C8F4AAE0B0E0A70196019BD16F01FF0FB5
S11358F0EE08FF08DC01CB018C0D9D1DAE1DBF1D04
S11359006C017D0120E3C21AD108E108F10802C04C
S1135910BB24B394D801ED91FC910284F385E02D6E
S1135920C8011995C80153DFFC01C0970A9778F2A2
S1135930CE17DF0761F2BB2061F066277727CB0122
S11359406C197D098E099F0906C060E070E0CB01E7
S113595002C0C701B601DF91CF911F910F91FF9053
S1135960EF90DF90CF90BF9008954F925F926F9227
S11359707F928F929F92AF92BF92CF92DF92EF92DB
S1135980FF920F931F93CF93DF938C01EB0186E07B
S1135990849F4001859F900C1124860E971EFB0165
S11359A0E815F905F8F482819381892B09F136967B
S11359B0F7CF6081718144815581DB01A40FB51F4C
S11359C02C9130E08217930709F54F5F5F4F5583A1
S11359D04483228133814217530751F03696E815E8
S11359E0F90538F3C801C3DE97FD44C0FE01F7CFC3
S11359F0EC1BFD0BF595E7952BEA3AEAE29FC00113
S1135A00E39F900DF29F900D112436C0411551056E
S1135A1029F3C480D580960121503109358324832C
S1135A20DB01A20FB31FAC91B0E08A179B07F9F416
S1135A3021153105C9F05B017A01E21AF30AE60E79
S1135A40F71E412C512CD5016D905D01D7017D903D
S1135A507D01671006C0BFEF4B1A5B0A421653065E
S1135A6090F324153505A9F6D582C482B7CF232B2C
S1135A7081F6B4CF8FEF9FEFDF91CF911F910F91FC
S1135A80FF90EF90DF90CF90BF90AF909F908F905A
S1135A907F906F905F904F900895CF93DF9300D0E5
S1135AA000D0CDB7DEB7FE01319626E0DF011D92AE
S1135AB02A95E9F77A8369835C834B8341E050E05C
S1135AC0BF0153DF21E0892B09F020E0822F2696C5
S1135AD00FB6F894DEBF0FBECDBFDF91CF9108950E
S1135AE0FB0101900020E9F73197AF01461B570BEA
S1135AF0D4CF32D008F481E008950E94950E88F046
S1135B009F5798F0B92F9927B751B0F0E1F0660F7D
S1135B10771F881F991F1AF0BA95C9F714C0B130BE
S1135B2091F00E94AF0EB1E008950C94AF0E672F70
S1135B30782F8827B85F39F0B93FCCF386957795ED
S1135B406795B395D9F73EF49095809570956195D6
S1135B507F4F8F4F9F4F0895990F0008550FAA0B41
S1135B60E0E8FEEF16161706E807F907C0F012166C
S1135B701306E407F50798F0621B730B840B950B6F
S1135B8039F40A2661F0232B242B252B21F40895C4
S1135B900A2609F4A140A6958FEF811D811D089561
S1135BA0DBDF08F48FEF0895D7DF880B990B089596
S1135BB0A1E21A2EAA1BBB1BFD010DC0AA1FBB1F0D
S1135BC0EE1FFF1FA217B307E407F50720F0A21B7F
S1135BD0B30BE40BF50B661F771F881F991F1A94EC
S1135BE069F760957095809590959B01AC01BD0116
S1135BF0CF010895EE0FFF1F881F8BBF0790F6910A
S1135C00E02D1994A29FB001B39FC001A39F700D12
S1135C10811D1124911DB29F700D811D1124911DB0
S1135C200895F0DFA59F900DB49F900DA49F800D63
S1135C30911D11240895EF920F931F93CF93DF9337
S1135C40E80147FD02C034E001C034E1042E000C39
S1135C50550B57FF03C0519541955109E32E022F6F
S1135C60242FAE017ED5CE01DF91CF911F910F91EC
S1135C70EF9008950F931F93CF93DF938230910594
S1135C8010F482E090E0E0917006F091710620E05B
S1135C9030E0A0E0B0E0309719F1408151810281F9
S1135CA0138148175907C8F08417950769F41097AA
S1135CB031F012960C93129713961C9327C00093FD
S1135CC070061093710622C02115310519F0421790
S1135CD0530718F49A01BD01EF01DF01F801DBCF8E
S1135CE021153105F9F0281B390B2430310580F4D6
